{
  "_format": "hh-sol-artifact-1",
  "contractName": "SupplyChain",
  "sourceName": "contracts/SupplyChain.sol",
  "abi": [
    {
      "anonymous": false,
      "inputs": [
        {
          "indexed": true,
          "internalType": "uint256",
          "name": "productId",
          "type": "uint256"
        },
        {
          "indexed": true,
          "internalType": "address",
          "name": "previousOwner",
          "type": "address"
        },
        {
          "indexed": true,
          "internalType": "address",
          "name": "newOwner",
          "type": "address"
        },
        {
          "indexed": false,
          "internalType": "enum SupplyChain.State",
          "name": "newState",
          "type": "uint8"
        },
        {
          "indexed": false,
          "internalType": "uint256",
          "name": "timestamp",
          "type": "uint256"
        }
      ],
      "name": "OwnershipTransferred",
      "type": "event"
    },
    {
      "anonymous": false,
      "inputs": [
        {
          "indexed": true,
          "internalType": "uint256",
          "name": "productId",
          "type": "uint256"
        },
        {
          "indexed": false,
          "internalType": "string",
          "name": "batchNumber",
          "type": "string"
        },
        {
          "indexed": true,
          "internalType": "address",
          "name": "manufacturer",
          "type": "address"
        },
        {
          "indexed": false,
          "internalType": "uint256",
          "name": "timestamp",
          "type": "uint256"
        }
      ],
      "name": "ProductRegistered",
      "type": "event"
    },
    {
      "inputs": [
        {
          "internalType": "uint256",
          "name": "_productId",
          "type": "uint256"
        }
      ],
      "name": "getProductTrack",
      "outputs": [
        {
          "internalType": "uint256",
          "name": "id",
          "type": "uint256"
        },
        {
          "internalType": "string",
          "name": "name",
          "type": "string"
        },
        {
          "internalType": "string",
          "name": "batchNumber",
          "type": "string"
        },
        {
          "internalType": "address",
          "name": "manufacturer",
          "type": "address"
        },
        {
          "internalType": "address",
          "name": "currentOwner",
          "type": "address"
        },
        {
          "internalType": "enum SupplyChain.State",
          "name": "state",
          "type": "uint8"
        },
        {
          "internalType": "uint256",
          "name": "timestamp",
          "type": "uint256"
        }
      ],
      "stateMutability": "view",
      "type": "function"
    },
    {
      "inputs": [],
      "name": "productCount",
      "outputs": [
        {
          "internalType": "uint256",
          "name": "",
          "type": "uint256"
        }
      ],
      "stateMutability": "view",
      "type": "function"
    },
    {
      "inputs": [
        {
          "internalType": "uint256",
          "name": "",
          "type": "uint256"
        }
      ],
      "name": "products",
      "outputs": [
        {
          "internalType": "uint256",
          "name": "id",
          "type": "uint256"
        },
        {
          "internalType": "string",
          "name": "name",
          "type": "string"
        },
        {
          "internalType": "string",
          "name": "batchNumber",
          "type": "string"
        },
        {
          "internalType": "address",
          "name": "manufacturer",
          "type": "address"
        },
        {
          "internalType": "address",
          "name": "currentOwner",
          "type": "address"
        },
        {
          "internalType": "enum SupplyChain.State",
          "name": "state",
          "type": "uint8"
        },
        {
          "internalType": "uint256",
          "name": "timestamp",
          "type": "uint256"
        },
        {
          "internalType": "bool",
          "name": "exists",
          "type": "bool"
        }
      ],
      "stateMutability": "view",
      "type": "function"
    },
    {
      "inputs": [
        {
          "internalType": "string",
          "name": "_name",
          "type": "string"
        },
        {
          "internalType": "string",
          "name": "_batchNumber",
          "type": "string"
        }
      ],
      "name": "registerProduct",
      "outputs": [],
      "stateMutability": "nonpayable",
      "type": "function"
    },
    {
      "inputs": [
        {
          "internalType": "uint256",
          "name": "_productId",
          "type": "uint256"
        },
        {
          "internalType": "address",
          "name": "_newOwner",
          "type": "address"
        },
        {
          "internalType": "enum SupplyChain.State",
          "name": "_newState",
          "type": "uint8"
        }
      ],
      "name": "transferOwnership",
      "outputs": [],
      "stateMutability": "nonpayable",
      "type": "function"
    }
  ],
  "bytecode": "0x608060405234801561001057600080fd5b50611598806100206000396000f3fe608060405234801561001057600080fd5b50600436106100575760003560e01c80637acc0b201461005c578063804ea3fd146100935780638a31e1d3146100af5780638fbd0dcf146100e5578063e0f6ef8714610101575b600080fd5b61007660048036038101906100719190610b10565b61011f565b60405161008a989796959493929190610caf565b60405180910390f35b6100ad60048036038101906100a89190610d8c565b6102d1565b005b6100c960048036038101906100c49190610b10565b610598565b6040516100dc9796959493929190610ddf565b60405180910390f35b6100ff60048036038101906100fa9190610f91565b61089e565b005b610109610ac0565b6040516101169190611009565b60405180910390f35b600060205280600052604060002060009150905080600001549080600101805461014890611053565b80601f016020809104026020016040519081016040528092919081815260200182805461017490611053565b80156101c15780601f10610196576101008083540402835291602001916101c1565b820191906000526020600020905b8154815290600101906020018083116101a457829003601f168201915b5050505050908060020180546101d690611053565b80601f016020809104026020016040519081016040528092919081815260200182805461020290611053565b801561024f5780601f106102245761010080835404028352916020019161024f565b820191906000526020600020905b81548152906001019060200180831161023257829003601f168201915b5050505050908060030160009054906101000a900473ffffffffffffffffffffffffffffffffffffffff16908060040160009054906101000a900473ffffffffffffffffffffffffffffffffffffffff16908060040160149054906101000a900460ff16908060050154908060060160009054906101000a900460ff16905088565b60008084815260200190815260200160002060060160009054906101000a900460ff16610333576040517f08c379a000000000000000000000000000000000000000000000000000000000815260040161032a906110d0565b60405180910390fd5b60008084815260200190815260200160002060040160009054906101000a900473ffffffffffffffffffffffffffffffffffffffff1673ffffffffffffffffffffffffffffffffffffffff163373ffffffffffffffffffffffffffffffffffffffff16146103d6576040517f08c379a00000000000000000000000000000000000000000000000000000000081526004016103cd90611162565b60405180910390fd5b600073ffffffffffffffffffffffffffffffffffffffff168273ffffffffffffffffffffffffffffffffffffffff1603610445576040517f08c379a000000000000000000000000000000000000000000000000000000000815260040161043c906111f4565b60405180910390fd5b600080600085815260200190815260200160002060040160009054906101000a900473ffffffffffffffffffffffffffffffffffffffff1690508260008086815260200190815260200160002060040160006101000a81548173ffffffffffffffffffffffffffffffffffffffff021916908373ffffffffffffffffffffffffffffffffffffffff1602179055508160008086815260200190815260200160002060040160146101000a81548160ff0219169083600481111561050b5761050a610c1d565b5b021790555042600080868152602001908152602001600020600501819055508273ffffffffffffffffffffffffffffffffffffffff168173ffffffffffffffffffffffffffffffffffffffff16857fd04ac139f98832b998d1f24f7ea9b9ec24940c5b617ed7da02bf9d87bfea828e854260405161058a929190611214565b60405180910390a450505050565b600060608060008060008060008089815260200190815260200160002060060160009054906101000a900460ff16610605576040517f08c379a00000000000000000000000000000000000000000000000000000000081526004016105fc906110d0565b60405180910390fd5b60008060008a8152602001908152602001600020604051806101000160405290816000820154815260200160018201805461063f90611053565b80601f016020809104026020016040519081016040528092919081815260200182805461066b90611053565b80156106b85780601f1061068d576101008083540402835291602001916106b8565b820191906000526020600020905b81548152906001019060200180831161069b57829003601f168201915b505050505081526020016002820180546106d190611053565b80601f01602080910402602001604051908101604052809291908181526020018280546106fd90611053565b801561074a5780601f1061071f5761010080835404028352916020019161074a565b820191906000526020600020905b81548152906001019060200180831161072d57829003601f168201915b505050505081526020016003820160009054906101000a900473ffffffffffffffffffffffffffffffffffffffff1673ffffffffffffffffffffffffffffffffffffffff1673ffffffffffffffffffffffffffffffffffffffff1681526020016004820160009054906101000a900473ffffffffffffffffffffffffffffffffffffffff1673ffffffffffffffffffffffffffffffffffffffff1673ffffffffffffffffffffffffffffffffffffffff1681526020016004820160149054906101000a900460ff16600481111561082457610823610c1d565b5b600481111561083657610835610c1d565b5b8152602001600582015481526020016006820160009054906101000a900460ff1615151515815250509050806000015181602001518260400151836060015184608001518560a001518660c00151975097509750975097509750975050919395979092949650565b600160008154809291906108b19061126c565b919050555060405180610100016040528060015481526020018381526020018281526020013373ffffffffffffffffffffffffffffffffffffffff1681526020013373ffffffffffffffffffffffffffffffffffffffff1681526020016000600481111561092257610921610c1d565b5b81526020014281526020016001151581525060008060015481526020019081526020016000206000820151816000015560208201518160010190816109679190611460565b50604082015181600201908161097d9190611460565b5060608201518160030160006101000a81548173ffffffffffffffffffffffffffffffffffffffff021916908373ffffffffffffffffffffffffffffffffffffffff16021790555060808201518160040160006101000a81548173ffffffffffffffffffffffffffffffffffffffff021916908373ffffffffffffffffffffffffffffffffffffffff16021790555060a08201518160040160146101000a81548160ff02191690836004811115610a3757610a36610c1d565b5b021790555060c0820151816005015560e08201518160060160006101000a81548160ff0219169083151502179055509050503373ffffffffffffffffffffffffffffffffffffffff166001547f5b750c34ff65e7500b4250ef0db18cf3a3f0d4ce3131ef7e64d457b0bea7236f8342604051610ab4929190611532565b60405180910390a35050565b60015481565b6000604051905090565b600080fd5b600080fd5b6000819050919050565b610aed81610ada565b8114610af857600080fd5b50565b600081359050610b0a81610ae4565b92915050565b600060208284031215610b2657610b25610ad0565b5b6000610b3484828501610afb565b91505092915050565b610b4681610ada565b82525050565b600081519050919050565b600082825260208201905092915050565b60005b83811015610b86578082015181840152602081019050610b6b565b60008484015250505050565b6000601f19601f8301169050919050565b6000610bae82610b4c565b610bb88185610b57565b9350610bc8818560208601610b68565b610bd181610b92565b840191505092915050565b600073ffffffffffffffffffffffffffffffffffffffff82169050919050565b6000610c0782610bdc565b9050919050565b610c1781610bfc565b82525050565b7f4e487b7100000000000000000000000000000000000000000000000000000000600052602160045260246000fd5b60058110610c5d57610c5c610c1d565b5b50565b6000819050610c6e82610c4c565b919050565b6000610c7e82610c60565b9050919050565b610c8e81610c73565b82525050565b60008115159050919050565b610ca981610c94565b82525050565b600061010082019050610cc5600083018b610b3d565b8181036020830152610cd7818a610ba3565b90508181036040830152610ceb8189610ba3565b9050610cfa6060830188610c0e565b610d076080830187610c0e565b610d1460a0830186610c85565b610d2160c0830185610b3d565b610d2e60e0830184610ca0565b9998505050505050505050565b610d4481610bfc565b8114610d4f57600080fd5b50565b600081359050610d6181610d3b565b92915050565b60058110610d7457600080fd5b50565b600081359050610d8681610d67565b92915050565b600080600060608486031215610da557610da4610ad0565b5b6000610db386828701610afb565b9350506020610dc486828701610d52565b9250506040610dd586828701610d77565b9150509250925092565b600060e082019050610df4600083018a610b3d565b8181036020830152610e068189610ba3565b90508181036040830152610e1a8188610ba3565b9050610e296060830187610c0e565b610e366080830186610c0e565b610e4360a0830185610c85565b610e5060c0830184610b3d565b98975050505050505050565b600080fd5b600080fd5b7f4e487b7100000000000000000000000000000000000000000000000000000000600052604160045260246000fd5b610e9e82610b92565b810181811067ffffffffffffffff82111715610ebd57610ebc610e66565b5b80604052505050565b6000610ed0610ac6565b9050610edc8282610e95565b919050565b600067ffffffffffffffff821115610efc57610efb610e66565b5b610f0582610b92565b9050602081019050919050565b82818337600083830152505050565b6000610f34610f2f84610ee1565b610ec6565b905082815260208101848484011115610f5057610f4f610e61565b5b610f5b848285610f12565b509392505050565b600082601f830112610f7857610f77610e5c565b5b8135610f88848260208601610f21565b91505092915050565b60008060408385031215610fa857610fa7610ad0565b5b600083013567ffffffffffffffff811115610fc657610fc5610ad5565b5b610fd285828601610f63565b925050602083013567ffffffffffffffff811115610ff357610ff2610ad5565b5b610fff85828601610f63565b9150509250929050565b600060208201905061101e6000830184610b3d565b92915050565b7f4e487b7100000000000000000000000000000000000000000000000000000000600052602260045260246000fd5b6000600282049050600182168061106b57607f821691505b60208210810361107e5761107d611024565b5b50919050565b7f50726f6475637420646f6573206e6f742065786973742e000000000000000000600082015250565b60006110ba601783610b57565b91506110c582611084565b602082019050919050565b600060208201905081810360008301526110e9816110ad565b9050919050565b7f43616c6c6572206973206e6f74207468652063757272656e74206f776e65722060008201527f6f6620746869732070726f647563742e00000000000000000000000000000000602082015250565b600061114c603083610b57565b9150611157826110f0565b604082019050919050565b6000602082019050818103600083015261117b8161113f565b9050919050565b7f43616e6e6f74207472616e7366657220746f20746865207a65726f206164647260008201527f6573732e00000000000000000000000000000000000000000000000000000000602082015250565b60006111de602483610b57565b91506111e982611182565b604082019050919050565b6000602082019050818103600083015261120d816111d1565b9050919050565b60006040820190506112296000830185610c85565b6112366020830184610b3d565b9392505050565b7f4e487b7100000000000000000000000000000000000000000000000000000000600052601160045260246000fd5b600061127782610ada565b91507fffffffffffffffffffffffffffffffffffffffffffffffffffffffffffffffff82036112a9576112a861123d565b5b600182019050919050565b60008190508160005260206000209050919050565b60006020601f8301049050919050565b600082821b905092915050565b6000600883026113167fffffffffffffffffffffffffffffffffffffffffffffffffffffffffffffffff826112d9565b61132086836112d9565b95508019841693508086168417925050509392505050565b6000819050919050565b600061135d61135861135384610ada565b611338565b610ada565b9050919050565b6000819050919050565b61137783611342565b61138b61138382611364565b8484546112e6565b825550505050565b600090565b6113a0611393565b6113ab81848461136e565b505050565b5b818110156113cf576113c4600082611398565b6001810190506113b1565b5050565b601f821115611414576113e5816112b4565b6113ee846112c9565b810160208510156113fd578190505b611411611409856112c9565b8301826113b0565b50505b505050565b600082821c905092915050565b600061143760001984600802611419565b1980831691505092915050565b60006114508383611426565b9150826002028217905092915050565b61146982610b4c565b67ffffffffffffffff81111561148257611481610e66565b5b61148c8254611053565b6114978282856113d3565b600060209050601f8311600181146114ca57600084156114b8578287015190505b6114c28582611444565b86555061152a565b601f1984166114d8866112b4565b60005b82811015611500578489015182556001820191506020850194506020810190506114db565b8683101561151d5784890151611519601f891682611426565b8355505b6001600288020188555050505b505050505050565b6000604082019050818103600083015261154c8185610ba3565b905061155b6020830184610b3d565b939250505056fea26469706673582212209cca6877acdafb82baae49dfc44793475e39c3fe28bede748c0818b77e369f9464736f6c63430008140033",
  "linkReferences": {},
  "deployedLinkReferences": {}
}